{
  "_format": "hh-sol-artifact-1",
  "contractName": "Cyclops",
  "sourceName": "contracts/Cyclops.sol",
  "abi": [
    {
      "inputs": [],
      "stateMutability": "nonpayable",
      "type": "constructor"
    },
    {
      "anonymous": false,
      "inputs": [
        {
          "indexed": true,
          "internalType": "address",
          "name": "owner",
          "type": "address"
        },
        {
          "indexed": true,
          "internalType": "address",
          "name": "approved",
          "type": "address"
        },
        {
          "indexed": true,
          "internalType": "uint256",
          "name": "tokenId",
          "type": "uint256"
        }
      ],
      "name": "Approval",
      "type": "event"
    },
    {
      "anonymous": false,
      "inputs": [
        {
          "indexed": true,
          "internalType": "address",
          "name": "owner",
          "type": "address"
        },
        {
          "indexed": true,
          "internalType": "address",
          "name": "operator",
          "type": "address"
        },
        {
          "indexed": false,
          "internalType": "bool",
          "name": "approved",
          "type": "bool"
        }
      ],
      "name": "ApprovalForAll",
      "type": "event"
    },
    {
      "anonymous": false,
      "inputs": [
        {
          "indexed": false,
          "internalType": "uint256",
          "name": "amount",
          "type": "uint256"
        }
      ],
      "name": "Buy",
      "type": "event"
    },
    {
      "anonymous": false,
      "inputs": [
        {
          "indexed": true,
          "internalType": "address",
          "name": "delegator",
          "type": "address"
        },
        {
          "indexed": true,
          "internalType": "address",
          "name": "fromDelegate",
          "type": "address"
        },
        {
          "indexed": true,
          "internalType": "address",
          "name": "toDelegate",
          "type": "address"
        }
      ],
      "name": "DelegateChanged",
      "type": "event"
    },
    {
      "anonymous": false,
      "inputs": [
        {
          "indexed": true,
          "internalType": "address",
          "name": "delegate",
          "type": "address"
        },
        {
          "indexed": false,
          "internalType": "uint256",
          "name": "previousBalance",
          "type": "uint256"
        },
        {
          "indexed": false,
          "internalType": "uint256",
          "name": "newBalance",
          "type": "uint256"
        }
      ],
      "name": "DelegateVotesChanged",
      "type": "event"
    },
    {
      "anonymous": false,
      "inputs": [
        {
          "indexed": false,
          "internalType": "uint8",
          "name": "version",
          "type": "uint8"
        }
      ],
      "name": "Initialized",
      "type": "event"
    },
    {
      "anonymous": false,
      "inputs": [
        {
          "indexed": false,
          "internalType": "uint256",
          "name": "amount",
          "type": "uint256"
        }
      ],
      "name": "MaxTokensPerTransaction",
      "type": "event"
    },
    {
      "anonymous": false,
      "inputs": [
        {
          "indexed": true,
          "internalType": "address",
          "name": "previousOwner",
          "type": "address"
        },
        {
          "indexed": true,
          "internalType": "address",
          "name": "newOwner",
          "type": "address"
        }
      ],
      "name": "OwnershipTransferred",
      "type": "event"
    },
    {
      "anonymous": false,
      "inputs": [],
      "name": "Pause",
      "type": "event"
    },
    {
      "anonymous": false,
      "inputs": [
        {
          "indexed": false,
          "internalType": "address",
          "name": "account",
          "type": "address"
        }
      ],
      "name": "Paused",
      "type": "event"
    },
    {
      "anonymous": false,
      "inputs": [
        {
          "components": [
            {
              "internalType": "string",
              "name": "name",
              "type": "string"
            },
            {
              "internalType": "uint256",
              "name": "index",
              "type": "uint256"
            }
          ],
          "indexed": false,
          "internalType": "struct Cyclops.Property[]",
          "name": "properties",
          "type": "tuple[]"
        }
      ],
      "name": "Properties",
      "type": "event"
    },
    {
      "anonymous": false,
      "inputs": [
        {
          "indexed": false,
          "internalType": "uint256",
          "name": "amount",
          "type": "uint256"
        }
      ],
      "name": "TokenPrice",
      "type": "event"
    },
    {
      "anonymous": false,
      "inputs": [
        {
          "indexed": false,
          "internalType": "uint256",
          "name": "amount",
          "type": "uint256"
        }
      ],
      "name": "TotalTokens",
      "type": "event"
    },
    {
      "anonymous": false,
      "inputs": [
        {
          "indexed": false,
          "internalType": "uint256",
          "name": "amount",
          "type": "uint256"
        }
      ],
      "name": "TotalTokensBuyable",
      "type": "event"
    },
    {
      "anonymous": false,
      "inputs": [
        {
          "indexed": true,
          "internalType": "address",
          "name": "from",
          "type": "address"
        },
        {
          "indexed": true,
          "internalType": "address",
          "name": "to",
          "type": "address"
        },
        {
          "indexed": true,
          "internalType": "uint256",
          "name": "tokenId",
          "type": "uint256"
        }
      ],
      "name": "Transfer",
      "type": "event"
    },
    {
      "anonymous": false,
      "inputs": [],
      "name": "Unpause",
      "type": "event"
    },
    {
      "anonymous": false,
      "inputs": [
        {
          "indexed": false,
          "internalType": "address",
          "name": "account",
          "type": "address"
        }
      ],
      "name": "Unpaused",
      "type": "event"
    },
    {
      "inputs": [],
      "name": "DOMAIN_SEPARATOR",
      "outputs": [
        {
          "internalType": "bytes32",
          "name": "",
          "type": "bytes32"
        }
      ],
      "stateMutability": "view",
      "type": "function"
    },
    {
      "inputs": [
        {
          "internalType": "address",
          "name": "to",
          "type": "address"
        },
        {
          "internalType": "uint256",
          "name": "tokenId",
          "type": "uint256"
        }
      ],
      "name": "approve",
      "outputs": [],
      "stateMutability": "nonpayable",
      "type": "function"
    },
    {
      "inputs": [
        {
          "internalType": "address",
          "name": "owner",
          "type": "address"
        }
      ],
      "name": "balanceOf",
      "outputs": [
        {
          "internalType": "uint256",
          "name": "",
          "type": "uint256"
        }
      ],
      "stateMutability": "view",
      "type": "function"
    },
    {
      "inputs": [
        {
          "internalType": "uint256",
          "name": "tokenId",
          "type": "uint256"
        }
      ],
      "name": "burn",
      "outputs": [],
      "stateMutability": "nonpayable",
      "type": "function"
    },
    {
      "inputs": [
        {
          "internalType": "uint256",
          "name": "amount",
          "type": "uint256"
        },
        {
          "components": [
            {
              "internalType": "string",
              "name": "name",
              "type": "string"
            },
            {
              "internalType": "uint256",
              "name": "index",
              "type": "uint256"
            }
          ],
          "internalType": "struct Cyclops.Property[]",
          "name": "properties",
          "type": "tuple[]"
        }
      ],
      "name": "buy",
      "outputs": [],
      "stateMutability": "payable",
      "type": "function"
    },
    {
      "inputs": [],
      "name": "contractURI",
      "outputs": [
        {
          "internalType": "string",
          "name": "",
          "type": "string"
        }
      ],
      "stateMutability": "view",
      "type": "function"
    },
    {
      "inputs": [
        {
          "internalType": "address",
          "name": "delegatee",
          "type": "address"
        }
      ],
      "name": "delegate",
      "outputs": [],
      "stateMutability": "nonpayable",
      "type": "function"
    },
    {
      "inputs": [
        {
          "internalType": "address",
          "name": "delegatee",
          "type": "address"
        },
        {
          "internalType": "uint256",
          "name": "nonce",
          "type": "uint256"
        },
        {
          "internalType": "uint256",
          "name": "expiry",
          "type": "uint256"
        },
        {
          "internalType": "uint8",
          "name": "v",
          "type": "uint8"
        },
        {
          "internalType": "bytes32",
          "name": "r",
          "type": "bytes32"
        },
        {
          "internalType": "bytes32",
          "name": "s",
          "type": "bytes32"
        }
      ],
      "name": "delegateBySig",
      "outputs": [],
      "stateMutability": "nonpayable",
      "type": "function"
    },
    {
      "inputs": [
        {
          "internalType": "address",
          "name": "account",
          "type": "address"
        }
      ],
      "name": "delegates",
      "outputs": [
        {
          "internalType": "address",
          "name": "",
          "type": "address"
        }
      ],
      "stateMutability": "view",
      "type": "function"
    },
    {
      "inputs": [
        {
          "internalType": "address",
          "name": "to",
          "type": "address"
        },
        {
          "internalType": "uint256",
          "name": "tokenId",
          "type": "uint256"
        }
      ],
      "name": "directMint",
      "outputs": [],
      "stateMutability": "nonpayable",
      "type": "function"
    },
    {
      "inputs": [
        {
          "internalType": "uint256",
          "name": "tokenId",
          "type": "uint256"
        }
      ],
      "name": "getApproved",
      "outputs": [
        {
          "internalType": "address",
          "name": "",
          "type": "address"
        }
      ],
      "stateMutability": "view",
      "type": "function"
    },
    {
      "inputs": [
        {
          "internalType": "uint256",
          "name": "",
          "type": "uint256"
        }
      ],
      "name": "getFeeBps",
      "outputs": [
        {
          "internalType": "uint256[]",
          "name": "bps",
          "type": "uint256[]"
        }
      ],
      "stateMutability": "view",
      "type": "function"
    },
    {
      "inputs": [
        {
          "internalType": "uint256",
          "name": "",
          "type": "uint256"
        }
      ],
      "name": "getFeeRecipients",
      "outputs": [
        {
          "internalType": "address payable[]",
          "name": "recipients",
          "type": "address[]"
        }
      ],
      "stateMutability": "view",
      "type": "function"
    },
    {
      "inputs": [],
      "name": "getMaxTokensPerTransaction",
      "outputs": [
        {
          "internalType": "uint256",
          "name": "",
          "type": "uint256"
        }
      ],
      "stateMutability": "view",
      "type": "function"
    },
    {
      "inputs": [
        {
          "internalType": "uint256",
          "name": "blockNumber",
          "type": "uint256"
        }
      ],
      "name": "getPastTotalSupply",
      "outputs": [
        {
          "internalType": "uint256",
          "name": "",
          "type": "uint256"
        }
      ],
      "stateMutability": "view",
      "type": "function"
    },
    {
      "inputs": [
        {
          "internalType": "address",
          "name": "account",
          "type": "address"
        },
        {
          "internalType": "uint256",
          "name": "blockNumber",
          "type": "uint256"
        }
      ],
      "name": "getPastVotes",
      "outputs": [
        {
          "internalType": "uint256",
          "name": "",
          "type": "uint256"
        }
      ],
      "stateMutability": "view",
      "type": "function"
    },
    {
      "inputs": [
        {
          "internalType": "uint256",
          "name": "index",
          "type": "uint256"
        }
      ],
      "name": "getProperties",
      "outputs": [
        {
          "components": [
            {
              "internalType": "string",
              "name": "name",
              "type": "string"
            },
            {
              "internalType": "uint256",
              "name": "index",
              "type": "uint256"
            }
          ],
          "internalType": "struct Cyclops.Property[]",
          "name": "",
          "type": "tuple[]"
        }
      ],
      "stateMutability": "view",
      "type": "function"
    },
    {
      "inputs": [
        {
          "internalType": "uint256",
          "name": "",
          "type": "uint256"
        }
      ],
      "name": "getRoyalties",
      "outputs": [
        {
          "internalType": "address payable[]",
          "name": "recipients",
          "type": "address[]"
        },
        {
          "internalType": "uint256[]",
          "name": "bps",
          "type": "uint256[]"
        }
      ],
      "stateMutability": "view",
      "type": "function"
    },
    {
      "inputs": [],
      "name": "getTokenIdCounter",
      "outputs": [
        {
          "internalType": "uint256",
          "name": "",
          "type": "uint256"
        }
      ],
      "stateMutability": "view",
      "type": "function"
    },
    {
      "inputs": [],
      "name": "getTokenPrice",
      "outputs": [
        {
          "internalType": "uint256",
          "name": "",
          "type": "uint256"
        }
      ],
      "stateMutability": "view",
      "type": "function"
    },
    {
      "inputs": [],
      "name": "getTotalTokens",
      "outputs": [
        {
          "internalType": "uint256",
          "name": "",
          "type": "uint256"
        }
      ],
      "stateMutability": "view",
      "type": "function"
    },
    {
      "inputs": [],
      "name": "getTotalTokensBuyable",
      "outputs": [
        {
          "internalType": "uint256",
          "name": "",
          "type": "uint256"
        }
      ],
      "stateMutability": "view",
      "type": "function"
    },
    {
      "inputs": [
        {
          "internalType": "address",
          "name": "account",
          "type": "address"
        }
      ],
      "name": "getVotes",
      "outputs": [
        {
          "internalType": "uint256",
          "name": "",
          "type": "uint256"
        }
      ],
      "stateMutability": "view",
      "type": "function"
    },
    {
      "inputs": [],
      "name": "initialize",
      "outputs": [],
      "stateMutability": "nonpayable",
      "type": "function"
    },
    {
      "inputs": [
        {
          "internalType": "address",
          "name": "owner",
          "type": "address"
        },
        {
          "internalType": "address",
          "name": "operator",
          "type": "address"
        }
      ],
      "name": "isApprovedForAll",
      "outputs": [
        {
          "internalType": "bool",
          "name": "",
          "type": "bool"
        }
      ],
      "stateMutability": "view",
      "type": "function"
    },
    {
      "inputs": [],
      "name": "name",
      "outputs": [
        {
          "internalType": "string",
          "name": "",
          "type": "string"
        }
      ],
      "stateMutability": "view",
      "type": "function"
    },
    {
      "inputs": [
        {
          "internalType": "address",
          "name": "owner",
          "type": "address"
        }
      ],
      "name": "nonces",
      "outputs": [
        {
          "internalType": "uint256",
          "name": "",
          "type": "uint256"
        }
      ],
      "stateMutability": "view",
      "type": "function"
    },
    {
      "inputs": [],
      "name": "owner",
      "outputs": [
        {
          "internalType": "address",
          "name": "",
          "type": "address"
        }
      ],
      "stateMutability": "view",
      "type": "function"
    },
    {
      "inputs": [
        {
          "internalType": "uint256",
          "name": "tokenId",
          "type": "uint256"
        }
      ],
      "name": "ownerOf",
      "outputs": [
        {
          "internalType": "address",
          "name": "",
          "type": "address"
        }
      ],
      "stateMutability": "view",
      "type": "function"
    },
    {
      "inputs": [],
      "name": "pause",
      "outputs": [],
      "stateMutability": "nonpayable",
      "type": "function"
    },
    {
      "inputs": [],
      "name": "paused",
      "outputs": [
        {
          "internalType": "bool",
          "name": "",
          "type": "bool"
        }
      ],
      "stateMutability": "view",
      "type": "function"
    },
    {
      "inputs": [],
      "name": "renounceOwnership",
      "outputs": [],
      "stateMutability": "nonpayable",
      "type": "function"
    },
    {
      "inputs": [
        {
          "internalType": "uint256",
          "name": "",
          "type": "uint256"
        },
        {
          "internalType": "uint256",
          "name": "value",
          "type": "uint256"
        }
      ],
      "name": "royaltyInfo",
      "outputs": [
        {
          "internalType": "address",
          "name": "",
          "type": "address"
        },
        {
          "internalType": "uint256",
          "name": "",
          "type": "uint256"
        }
      ],
      "stateMutability": "view",
      "type": "function"
    },
    {
      "inputs": [
        {
          "internalType": "address",
          "name": "to",
          "type": "address"
        }
      ],
      "name": "safeMint",
      "outputs": [],
      "stateMutability": "nonpayable",
      "type": "function"
    },
    {
      "inputs": [
        {
          "internalType": "address",
          "name": "from",
          "type": "address"
        },
        {
          "internalType": "address",
          "name": "to",
          "type": "address"
        },
        {
          "internalType": "uint256",
          "name": "tokenId",
          "type": "uint256"
        }
      ],
      "name": "safeTransferFrom",
      "outputs": [],
      "stateMutability": "nonpayable",
      "type": "function"
    },
    {
      "inputs": [
        {
          "internalType": "address",
          "name": "from",
          "type": "address"
        },
        {
          "internalType": "address",
          "name": "to",
          "type": "address"
        },
        {
          "internalType": "uint256",
          "name": "tokenId",
          "type": "uint256"
        },
        {
          "internalType": "bytes",
          "name": "_data",
          "type": "bytes"
        }
      ],
      "name": "safeTransferFrom",
      "outputs": [],
      "stateMutability": "nonpayable",
      "type": "function"
    },
    {
      "inputs": [
        {
          "internalType": "address",
          "name": "operator",
          "type": "address"
        },
        {
          "internalType": "bool",
          "name": "approved",
          "type": "bool"
        }
      ],
      "name": "setApprovalForAll",
      "outputs": [],
      "stateMutability": "nonpayable",
      "type": "function"
    },
    {
      "inputs": [
        {
          "internalType": "string",
          "name": "baseURIPrefix",
          "type": "string"
        }
      ],
      "name": "setBaseURI",
      "outputs": [],
      "stateMutability": "nonpayable",
      "type": "function"
    },
    {
      "inputs": [
        {
          "internalType": "string",
          "name": "metadataURI",
          "type": "string"
        }
      ],
      "name": "setContractURI",
      "outputs": [],
      "stateMutability": "nonpayable",
      "type": "function"
    },
    {
      "inputs": [
        {
          "internalType": "uint256",
          "name": "amount",
          "type": "uint256"
        }
      ],
      "name": "setMaxTokensPerTransaction",
      "outputs": [],
      "stateMutability": "nonpayable",
      "type": "function"
    },
    {
      "inputs": [
        {
          "internalType": "uint256",
          "name": "index",
          "type": "uint256"
        },
        {
          "components": [
            {
              "internalType": "string",
              "name": "name",
              "type": "string"
            },
            {
              "internalType": "uint256",
              "name": "index",
              "type": "uint256"
            }
          ],
          "internalType": "struct Cyclops.Property[]",
          "name": "properties",
          "type": "tuple[]"
        }
      ],
      "name": "setProperties",
      "outputs": [],
      "stateMutability": "nonpayable",
      "type": "function"
    },
    {
      "inputs": [
        {
          "internalType": "uint256",
          "name": "royaltyBps",
          "type": "uint256"
        }
      ],
      "name": "setRoyaltyBps",
      "outputs": [],
      "stateMutability": "nonpayable",
      "type": "function"
    },
    {
      "inputs": [
        {
          "internalType": "address payable",
          "name": "royaltyRecipient",
          "type": "address"
        }
      ],
      "name": "setRoyaltyRecipient",
      "outputs": [],
      "stateMutability": "nonpayable",
      "type": "function"
    },
    {
      "inputs": [
        {
          "internalType": "uint256",
          "name": "amount",
          "type": "uint256"
        }
      ],
      "name": "setTokenPrice",
      "outputs": [],
      "stateMutability": "nonpayable",
      "type": "function"
    },
    {
      "inputs": [
        {
          "internalType": "uint256",
          "name": "amount",
          "type": "uint256"
        }
      ],
      "name": "setTotalTokens",
      "outputs": [],
      "stateMutability": "nonpayable",
      "type": "function"
    },
    {
      "inputs": [
        {
          "internalType": "uint256",
          "name": "amount",
          "type": "uint256"
        }
      ],
      "name": "setTotalTokensBuyable",
      "outputs": [],
      "stateMutability": "nonpayable",
      "type": "function"
    },
    {
      "inputs": [
        {
          "internalType": "bytes4",
          "name": "interfaceId",
          "type": "bytes4"
        }
      ],
      "name": "supportsInterface",
      "outputs": [
        {
          "internalType": "bool",
          "name": "",
          "type": "bool"
        }
      ],
      "stateMutability": "view",
      "type": "function"
    },
    {
      "inputs": [],
      "name": "symbol",
      "outputs": [
        {
          "internalType": "string",
          "name": "",
          "type": "string"
        }
      ],
      "stateMutability": "view",
      "type": "function"
    },
    {
      "inputs": [
        {
          "internalType": "uint256",
          "name": "index",
          "type": "uint256"
        }
      ],
      "name": "tokenByIndex",
      "outputs": [
        {
          "internalType": "uint256",
          "name": "",
          "type": "uint256"
        }
      ],
      "stateMutability": "view",
      "type": "function"
    },
    {
      "inputs": [
        {
          "internalType": "address",
          "name": "owner",
          "type": "address"
        },
        {
          "internalType": "uint256",
          "name": "index",
          "type": "uint256"
        }
      ],
      "name": "tokenOfOwnerByIndex",
      "outputs": [
        {
          "internalType": "uint256",
          "name": "",
          "type": "uint256"
        }
      ],
      "stateMutability": "view",
      "type": "function"
    },
    {
      "inputs": [
        {
          "internalType": "uint256",
          "name": "tokenId",
          "type": "uint256"
        }
      ],
      "name": "tokenURI",
      "outputs": [
        {
          "internalType": "string",
          "name": "",
          "type": "string"
        }
      ],
      "stateMutability": "view",
      "type": "function"
    },
    {
      "inputs": [],
      "name": "totalSupply",
      "outputs": [
        {
          "internalType": "uint256",
          "name": "",
          "type": "uint256"
        }
      ],
      "stateMutability": "view",
      "type": "function"
    },
    {
      "inputs": [
        {
          "internalType": "address",
          "name": "from",
          "type": "address"
        },
        {
          "internalType": "address",
          "name": "to",
          "type": "address"
        },
        {
          "internalType": "uint256",
          "name": "tokenId",
          "type": "uint256"
        }
      ],
      "name": "transferFrom",
      "outputs": [],
      "stateMutability": "nonpayable",
      "type": "function"
    },
    {
      "inputs": [
        {
          "internalType": "address",
          "name": "newOwner",
          "type": "address"
        }
      ],
      "name": "transferOwnership",
      "outputs": [],
      "stateMutability": "nonpayable",
      "type": "function"
    },
    {
      "inputs": [],
      "name": "unpause",
      "outputs": [],
      "stateMutability": "nonpayable",
      "type": "function"
    },
    {
      "inputs": [],
      "name": "withdraw",
      "outputs": [],
      "stateMutability": "nonpayable",
      "type": "function"
    }
  ],
  "bytecode": "0x60806040523480156200001157600080fd5b506200001c62000022565b6200013b565b6200002e60ff62000031565b50565b60008054610100900460ff16156200009a578160ff1660011480156200006a57506200006830620000de60201b620021a91760201c565b155b620000925760405162461bcd60e51b81526004016200008990620000ed565b60405180910390fd5b506000919050565b60005460ff808416911610620000c45760405162461bcd60e51b81526004016200008990620000ed565b506000805460ff191660ff92909216919091179055600190565b6001600160a01b03163b151590565b6020808252602e908201527f496e697469616c697a61626c653a20636f6e747261637420697320616c72656160408201526d191e481a5b9a5d1a585b1a5e995960921b606082015260800190565b6148f7806200014b6000396000f3fe60806040526004361061028b5760003560e01c80636352211e116101565780636352211e1461063b5780636a61e5fc1461065b57806370a082311461067b578063715018a61461069b5780637ecebe00146106b05780638129fc1c146106d05780638456cb59146106e55780638da5cb5b146106fa5780638e539e8c1461070f57806392566e271461072f578063938e3d7b1461074f57806395d89b411461076f5780639ab24eb014610784578063a22cb465146107a4578063b0b92263146107c4578063b88d4fde146107e4578063b8d1524514610804578063b9c4d9fb14610817578063ba6ee24314610844578063bb3bafd61461085a578063c0a0d0d814610888578063c3cda5201461089e578063c87b56dd146108be578063dbfd4b98146108de578063e8a3d485146108f3578063e985e9c514610908578063f08b82e614610928578063f2fde38b1461093e57600080fd5b806301ffc9a71461029057806306fdde03146102c5578063081812fc146102e7578063095ea7b3146103145780630ebd4c7f1461033657806311fa2bfa146103635780631449d3e61461038357806318160ddd146103a35780631b8ca217146103c25780631f72d831146103ef57806323b872dd1461040f5780632a55205a1461042f5780632f745c591461046e5780632f8bd8911461048e5780633644e515146104ae5780633a46b1a8146104c35780633ccfd60b146104e35780633f4ba83a146104f857806340d097c31461050d57806341e42f301461052d57806342842e0e1461054d57806342966c681461056d5780634b94f50e1461058d5780634f6ccce7146105a357806355f804b3146105c3578063587cde1e146105e35780635c19a95c146106035780635c975abb14610623575b600080fd5b34801561029c57600080fd5b506102b06102ab366004613db9565b61095e565b60405190151581526020015b60405180910390f35b3480156102d157600080fd5b506102da6109a4565b6040516102bc9190613e2e565b3480156102f357600080fd5b50610307610302366004613e41565b610a36565b6040516102bc9190613e5a565b34801561032057600080fd5b5061033461032f366004613e83565b610ac3565b005b34801561034257600080fd5b50610356610351366004613e41565b610bd4565b6040516102bc9190613eea565b34801561036f57600080fd5b5061033461037e366004613fe2565b610c32565b34801561038f57600080fd5b5061033461039e366004613e41565b610d83565b3480156103af57600080fd5b506099545b6040519081526020016102bc565b3480156103ce57600080fd5b506103e26103dd366004613e41565b610def565b6040516102bc91906140ec565b3480156103fb57600080fd5b5061033461040a366004613e41565b610efe565b34801561041b57600080fd5b5061033461042a366004614162565b610f33565b34801561043b57600080fd5b5061044f61044a3660046141a3565b610f65565b604080516001600160a01b0390931683526020830191909152016102bc565b34801561047a57600080fd5b506103b4610489366004613e83565b610fa1565b34801561049a57600080fd5b506103346104a9366004613e83565b611037565b3480156104ba57600080fd5b506103b46110f8565b3480156104cf57600080fd5b506103b46104de366004613e83565b611107565b3480156104ef57600080fd5b50610334611131565b34801561050457600080fd5b5061033461118f565b34801561051957600080fd5b506103346105283660046141c5565b6111f1565b34801561053957600080fd5b506103346105483660046141c5565b61123d565b34801561055957600080fd5b50610334610568366004614162565b61128f565b34801561057957600080fd5b50610334610588366004613e41565b6112aa565b34801561059957600080fd5b5061022f546103b4565b3480156105af57600080fd5b506103b46105be366004613e41565b611324565b3480156105cf57600080fd5b506103346105de3660046141e2565b6113b7565b3480156105ef57600080fd5b506103076105fe3660046141c5565b6113fa565b34801561060f57600080fd5b5061033461061e3660046141c5565b611419565b34801561062f57600080fd5b5060fb5460ff166102b0565b34801561064757600080fd5b50610307610656366004613e41565b611424565b34801561066757600080fd5b50610334610676366004613e41565b61149b565b34801561068757600080fd5b506103b46106963660046141c5565b611500565b3480156106a757600080fd5b50610334611587565b3480156106bc57600080fd5b506103b46106cb3660046141c5565b6115c2565b3480156106dc57600080fd5b506103346115e1565b3480156106f157600080fd5b50610334611799565b34801561070657600080fd5b506103076117fb565b34801561071b57600080fd5b506103b461072a366004613e41565b61180b565b34801561073b57600080fd5b5061033461074a366004613e41565b611865565b34801561075b57600080fd5b5061033461076a3660046141e2565b611943565b34801561077b57600080fd5b506102da611986565b34801561079057600080fd5b506103b461079f3660046141c5565b611995565b3480156107b057600080fd5b506103346107bf366004614216565b6119b7565b3480156107d057600080fd5b506103346107df366004613e41565b6119c2565b3480156107f057600080fd5b506103346107ff366004614254565b611aaa565b610334610812366004613fe2565b611ae2565b34801561082357600080fd5b50610837610832366004613e41565b611e5d565b6040516102bc919061430c565b34801561085057600080fd5b5061022e546103b4565b34801561086657600080fd5b5061087a610875366004613e41565b611ed8565b6040516102bc92919061431f565b34801561089457600080fd5b50610231546103b4565b3480156108aa57600080fd5b506103346108b936600461434d565b611f8f565b3480156108ca57600080fd5b506102da6108d9366004613e41565b6120b7565b3480156108ea57600080fd5b506103b46120c2565b3480156108ff57600080fd5b506102da6120ce565b34801561091457600080fd5b506102b06109233660046143af565b6120de565b34801561093457600080fd5b50610230546103b4565b34801561094a57600080fd5b506103346109593660046141c5565b61210c565b60006001600160e01b03198216632dde656160e21b148061098f57506001600160e01b0319821663152a902d60e11b145b8061099e575061099e826121b8565b92915050565b6060606580546109b3906143dd565b80601f01602080910402602001604051908101604052809291908181526020018280546109df906143dd565b8015610a2c5780601f10610a0157610100808354040283529160200191610a2c565b820191906000526020600020905b815481529060010190602001808311610a0f57829003601f168201915b5050505050905090565b6000610a41826121dd565b610aa75760405162461bcd60e51b815260206004820152602c60248201527f4552433732313a20617070726f76656420717565727920666f72206e6f6e657860448201526b34b9ba32b73a103a37b5b2b760a11b60648201526084015b60405180910390fd5b506000908152606960205260409020546001600160a01b031690565b6000610ace82611424565b9050806001600160a01b0316836001600160a01b03161415610b3c5760405162461bcd60e51b815260206004820152602160248201527f4552433732313a20617070726f76616c20746f2063757272656e74206f776e656044820152603960f91b6064820152608401610a9e565b336001600160a01b0382161480610b585750610b5881336120de565b610bc55760405162461bcd60e51b815260206004820152603860248201527f4552433732313a20617070726f76652063616c6c6572206973206e6f74206f776044820152771b995c881b9bdc88185c1c1c9bdd995908199bdc88185b1b60421b6064820152608401610a9e565b610bcf83836121fa565b505050565b61022d546060906001600160a01b031615610c2d57604080516001808252818301909252906020808301908036833701905050905061022c5481600081518110610c2057610c20614412565b6020026020010181815250505b919050565b33610c3b6117fb565b6001600160a01b031614610c615760405162461bcd60e51b8152600401610a9e90614428565b8051600083815261023260205260408120610c7b91613c8f565b60005b81811015610d375761023260008581526020019081526020016000206040518060400160405280858481518110610cb757610cb7614412565b6020026020010151600001518152602001858481518110610cda57610cda614412565b602090810291909101810151810151909152825460018101845560009384529281902082518051939460020290910192610d179284920190613cb0565b506020820151816001015550508080610d2f90614473565b915050610c7e565b50600083815261023260205260409081902090517fb440f77e35d81a92549dfad48afec38319dc5e7bb26310e11cf77d42d492f6d891610d769161448e565b60405180910390a1505050565b33610d8c6117fb565b6001600160a01b031614610db25760405162461bcd60e51b8152600401610a9e90614428565b61022e8190556040518181527f107b769910cea70ed54ae1713df76c8ee8300a0ec6b9fcfe451d29aebd6563c8906020015b60405180910390a150565b60606102326000838152602001908152602001600020805480602002602001604051908101604052809291908181526020016000905b82821015610ef35783829060005260206000209060020201604051806040016040529081600082018054610e58906143dd565b80601f0160208091040260200160405190810160405280929190818152602001828054610e84906143dd565b8015610ed15780601f10610ea657610100808354040283529160200191610ed1565b820191906000526020600020905b815481529060010190602001808311610eb457829003601f168201915b5050505050815260200160018201548152505081526020019060010190610e25565b505050509050919050565b33610f076117fb565b6001600160a01b031614610f2d5760405162461bcd60e51b8152600401610a9e90614428565b61022c55565b610f3e335b82612268565b610f5a5760405162461bcd60e51b8152600401610a9e9061458f565b610bcf838383612332565b61022d5461022c5460009182916001600160a01b039091169061271090610f8c90866145e0565b610f969190614615565b915091509250929050565b6000610fac83611500565b821061100e5760405162461bcd60e51b815260206004820152602b60248201527f455243373231456e756d657261626c653a206f776e657220696e646578206f7560448201526a74206f6620626f756e647360a81b6064820152608401610a9e565b506001600160a01b03919091166000908152609760209081526040808320938352929052205490565b336110406117fb565b6001600160a01b0316146110665760405162461bcd60e51b8152600401610a9e90614428565b6102315481116110ea5760405162461bcd60e51b815260206004820152604360248201527f4379636c6f70733a20546f6b656e73206e756d62657220746f206d696e74206d60448201527f75737420657863656564206e756d626572206f662062757961626c6520746f6b606482015262656e7360e81b608482015260a401610a9e565b6110f482826124cd565b5050565b60006111026124e7565b905090565b6001600160a01b03821660009081526101c66020526040812061112a9083612564565b9392505050565b3361113a6117fb565b6001600160a01b0316146111605760405162461bcd60e51b8152600401610a9e90614428565b6040514790339082156108fc029083906000818181858888f193505050501580156110f4573d6000803e3d6000fd5b336111986117fb565b6001600160a01b0316146111be5760405162461bcd60e51b8152600401610a9e90614428565b6111c6612672565b6040517f7805862f689e2f13df9f062ff482ad3ad112aca9e0847911ed832e158c525b3390600090a1565b336111fa6117fb565b6001600160a01b0316146112205760405162461bcd60e51b8152600401610a9e90614428565b600061122c6102295490565b90506110ea61022980546001019055565b336112466117fb565b6001600160a01b03161461126c5760405162461bcd60e51b8152600401610a9e90614428565b61022d80546001600160a01b0319166001600160a01b0392909216919091179055565b610bcf83838360405180602001604052806000815250611aaa565b6112b333610f38565b6113185760405162461bcd60e51b815260206004820152603060248201527f4552433732314275726e61626c653a2063616c6c6572206973206e6f74206f7760448201526f1b995c881b9bdc88185c1c1c9bdd995960821b6064820152608401610a9e565b611321816126ff565b50565b600061132f60995490565b82106113925760405162461bcd60e51b815260206004820152602c60248201527f455243373231456e756d657261626c653a20676c6f62616c20696e646578206f60448201526b7574206f6620626f756e647360a01b6064820152608401610a9e565b609982815481106113a5576113a5614412565b90600052602060002001549050919050565b336113c06117fb565b6001600160a01b0316146113e65760405162461bcd60e51b8152600401610a9e90614428565b80516110f49061022a906020840190613cb0565b6001600160a01b0390811660009081526101c560205260409020541690565b336110f48183612708565b6000818152606760205260408120546001600160a01b03168061099e5760405162461bcd60e51b815260206004820152602960248201527f4552433732313a206f776e657220717565727920666f72206e6f6e657869737460448201526832b73a103a37b5b2b760b91b6064820152608401610a9e565b336114a46117fb565b6001600160a01b0316146114ca5760405162461bcd60e51b8152600401610a9e90614428565b61022f8190556040518181527f8bf972b26e391d4867ecf6e349742ee5dd12922b5e920ad57b3f6c23f9d0075090602001610de4565b60006001600160a01b03821661156b5760405162461bcd60e51b815260206004820152602a60248201527f4552433732313a2062616c616e636520717565727920666f7220746865207a65604482015269726f206164647265737360b01b6064820152608401610a9e565b506001600160a01b031660009081526068602052604090205490565b336115906117fb565b6001600160a01b0316146115b65760405162461bcd60e51b8152600401610a9e90614428565b6115c06000612784565b565b6001600160a01b03811660009081526101c8602052604081205461099e565b60006115ed60016127d7565b90508015611605576000805461ff0019166101001790555b611649604051806040016040528060078152602001664379636c6f707360c81b8152506040518060400160405280600381526020016204359560ec1b815250612866565b611651612897565b611659612897565b6116616128be565b6116696128ed565b611671612897565b6116b3604051806040016040528060078152602001664379636c6f707360c81b815250604051806040016040528060018152602001603160f81b81525061291c565b6116bb612897565b6116ca61022980546001019055565b6116eb604051806060016040528060308152602001614892603091396113b7565b61170c6040518060600160405280603b8152602001614837603b9139611943565b6117176103e8610efe565b6117203361123d565b61172a6001610d83565b611739659f295cd5f00061149b565b61174461c3506119c2565b61174f61c350611865565b611757611799565b8015611321576000805461ff0019169055604051600181527f7f26b83ff96e1f2b6a682f133852f6798a09c465da95921460cefb384740249890602001610de4565b336117a26117fb565b6001600160a01b0316146117c85760405162461bcd60e51b8152600401610a9e90614428565b6117d061294d565b6040517f6985a02210a168e66602d3235cb6db0e70f92b3ba4d376a33c0f3d9434bff62590600090a1565b61012d546001600160a01b031690565b60004382106118595760405162461bcd60e51b815260206004820152601a602482015279159bdd195cce88189b1bd8dac81b9bdd081e595d081b5a5b995960321b6044820152606401610a9e565b61099e6101c783612564565b3361186e6117fb565b6001600160a01b0316146118945760405162461bcd60e51b8152600401610a9e90614428565b6102305481111561190d5760405162461bcd60e51b815260206004820152603f60248201527f4379636c6f70733a2042757961626c6520746f6b656e73206d7573742062652060448201527f657175616c206f72206c657373207468616e20746f74616c20746f6b656e73006064820152608401610a9e565b6102318190556040518181527fe8011faf3afd91e00a84382447999ca9ace585ce482a7b1b98eb9dd7aa7b49bb90602001610de4565b3361194c6117fb565b6001600160a01b0316146119725760405162461bcd60e51b8152600401610a9e90614428565b80516110f49061022b906020840190613cb0565b6060606680546109b3906143dd565b6001600160a01b03811660009081526101c66020526040812061099e906129a5565b6110f4338383612a00565b336119cb6117fb565b6001600160a01b0316146119f15760405162461bcd60e51b8152600401610a9e90614428565b61023154811015611a745760405162461bcd60e51b815260206004820152604160248201527f4379636c6f70733a20546f74616c20746f6b656e73206d75737420626520657160448201527f75616c206f7220686967686572207468616e2062757961626c6520746f6b656e6064820152607360f81b608482015260a401610a9e565b6102308190556040518181527ff74ce94578259e5298d22cc8785df2ffd1125ac8b087d26011e9ed4c83ccc63b90602001610de4565b611ab43383612268565b611ad05760405162461bcd60e51b8152600401610a9e9061458f565b611adc84848484612acb565b50505050565b60fb5460ff1615611b055760405162461bcd60e51b8152600401610a9e90614629565b60008211611b695760405162461bcd60e51b815260206004820152602b60248201527f4379636c6f70733a20546f6b656e206e756d626572206d75737420626520686960448201526a067686572207468616e20360ac1b6064820152608401610a9e565b61022e54821115611bd85760405162461bcd60e51b815260206004820152603360248201527f4379636c6f70733a204d617820746f6b656e7320706572207472616e736163746044820152721a5bdb881b9d5b58995c88195e18d959591959606a1b6064820152608401610a9e565b61023154611be7906001614653565b611bfb83611bf56102295490565b90612afe565b1115611c6f5760405162461bcd60e51b815260206004820152603f60248201527f4379636c6f70733a20546f6b656e73206e756d62657220746f206d696e74206560448201527f786365656473206e756d626572206f662062757961626c6520746f6b656e73006064820152608401610a9e565b61022f543490611c7f9084612b0a565b1115611cd95760405162461bcd60e51b8152602060048201526024808201527f4379636c6f70733a2045746865722076616c75652073656e7420697320746f6f604482015263206c6f7760e01b6064820152608401610a9e565b60005b82811015611e25576000611cf06102295490565b9050611d0161022980546001019055565b611d0b33826124cd565b825160005b81811015611dc95761023260008481526020019081526020016000206040518060400160405280878481518110611d4957611d49614412565b6020026020010151600001518152602001878481518110611d6c57611d6c614412565b602090810291909101810151810151909152825460018101845560009384529281902082518051939460020290910192611da99284920190613cb0565b506020820151816001015550508080611dc190614473565b915050611d10565b50600082815261023260205260409081902090517fb440f77e35d81a92549dfad48afec38319dc5e7bb26310e11cf77d42d492f6d891611e089161448e565b60405180910390a150508080611e1d90614473565b915050611cdc565b506040518281527f3e32821836f4caf5b64b2c8c6b460049a9797526960d31502f7575b8da39d5ae9060200160405180910390a15050565b61022d546060906001600160a01b031615610c2d576040805160018082528183019092529060208083019080368337505061022d5482519293506001600160a01b031691839150600090611eb357611eb3614412565b60200260200101906001600160a01b031690816001600160a01b031681525050919050565b61022d5460609081906001600160a01b031615611f8a576040805160018082528183019092529060208083019080368337505061022d5482519294506001600160a01b031691849150600090611f3057611f30614412565b6001600160a01b039290921660209283029190910182015260408051600180825281830190925291828101908036833701905050905061022c5481600081518110611f7d57611f7d614412565b6020026020010181815250505b915091565b83421115611fda5760405162461bcd60e51b8152602060048201526018602482015277159bdd195cce881cda59db985d1d5c9948195e1c1a5c995960421b6044820152606401610a9e565b604080517fe48329057bfd03d55e49b547132e39cffd9c1820ad7b9d4c5307691425d15adf60208201526001600160a01b0388169181019190915260608101869052608081018590526000906120549061204c9060a00160405160208183030381529060405280519060200120612b16565b858585612b64565b905061205f81612b8c565b86146120a45760405162461bcd60e51b8152602060048201526014602482015273566f7465733a20696e76616c6964206e6f6e636560601b6044820152606401610a9e565b6120ae8188612708565b50505050505050565b606061099e82612bb5565b60006111026102295490565b606061022b80546109b3906143dd565b6001600160a01b039182166000908152606a6020908152604080832093909416825291909152205460ff1690565b336121156117fb565b6001600160a01b03161461213b5760405162461bcd60e51b8152600401610a9e90614428565b6001600160a01b0381166121a05760405162461bcd60e51b815260206004820152602660248201527f4f776e61626c653a206e6577206f776e657220697320746865207a65726f206160448201526564647265737360d01b6064820152608401610a9e565b61132181612784565b6001600160a01b03163b151590565b60006001600160e01b0319821663780e9d6360e01b148061099e575061099e82612d17565b6000908152606760205260409020546001600160a01b0316151590565b600081815260696020526040902080546001600160a01b0319166001600160a01b038416908117909155819061222f82611424565b6001600160a01b03167f8c5be1e5ebec7d5bd14f71427d1e84f3dd0314c0f7b2291e5b200ac8c7c3b92560405160405180910390a45050565b6000612273826121dd565b6122d45760405162461bcd60e51b815260206004820152602c60248201527f4552433732313a206f70657261746f7220717565727920666f72206e6f6e657860448201526b34b9ba32b73a103a37b5b2b760a11b6064820152608401610a9e565b60006122df83611424565b9050806001600160a01b0316846001600160a01b03161480612306575061230681856120de565b8061232a5750836001600160a01b031661231f84610a36565b6001600160a01b0316145b949350505050565b826001600160a01b031661234582611424565b6001600160a01b0316146123a95760405162461bcd60e51b815260206004820152602560248201527f4552433732313a207472616e736665722066726f6d20696e636f72726563742060448201526437bbb732b960d91b6064820152608401610a9e565b6001600160a01b03821661240b5760405162461bcd60e51b8152602060048201526024808201527f4552433732313a207472616e7366657220746f20746865207a65726f206164646044820152637265737360e01b6064820152608401610a9e565b612416838383612d67565b6124216000826121fa565b6001600160a01b038316600090815260686020526040812080546001929061244a90849061466b565b90915550506001600160a01b0382166000908152606860205260408120805460019290612478908490614653565b909155505060008181526067602052604080822080546001600160a01b0319166001600160a01b03868116918217909255915184939187169160008051602061487283398151915291a4610bcf838383612d95565b6110f4828260405180602001604052806000815250612da0565b60006111027f8b73c3c69bb8fe3d512ecc4cf759cc79239f7b179b0ffacaa9a75d522b39400f6125176101915490565b610192546040805160208101859052908101839052606081018290524660808201523060a082015260009060c0016040516020818303038152906040528051906020012090509392505050565b60004382106125b55760405162461bcd60e51b815260206004820181905260248201527f436865636b706f696e74733a20626c6f636b206e6f7420796574206d696e65646044820152606401610a9e565b825460005b8181101561261a5760006125ce8284612dd3565b9050848660000182815481106125e6576125e6614412565b60009182526020909120015463ffffffff16111561260657809250612614565b612611816001614653565b91505b506125ba565b811561265d578461262c60018461466b565b8154811061263c5761263c614412565b600091825260209091200154600160201b90046001600160e01b0316612660565b60005b6001600160e01b031695945050505050565b60fb5460ff166126bb5760405162461bcd60e51b815260206004820152601460248201527314185d5cd8589b194e881b9bdd081c185d5cd95960621b6044820152606401610a9e565b60fb805460ff191690557f5db9ee0a495bf2e6ff9c91a7834c1ba4fdd244a5e8aa4e537bd38aeae4b073aa335b6040516126f59190613e5a565b60405180910390a1565b61132181612dee565b6000612713836113fa565b6001600160a01b0384811660008181526101c5602052604080822080546001600160a01b031916888616908117909155905194955093928516927f3134e8a2e6d97e929a7e54011ea5485d7d196dd5f0ba4d4ef95803e8e3fc257f9190a4610bcf818361277f86612e2e565b612e39565b61012d80546001600160a01b038381166001600160a01b0319831681179093556040519116919082907f8be0079c531659141344cd1fd0a4f28419497f9722a3daafe3b4186f6b6457e090600090a35050565b60008054610100900460ff1615612825578160ff16600114801561280157506127ff306121a9565b155b61281d5760405162461bcd60e51b8152600401610a9e90614682565b506000919050565b60005460ff80841691161061284c5760405162461bcd60e51b8152600401610a9e90614682565b506000805460ff191660ff92909216919091179055600190565b600054610100900460ff1661288d5760405162461bcd60e51b8152600401610a9e906146d0565b6110f48282612f78565b600054610100900460ff166115c05760405162461bcd60e51b8152600401610a9e906146d0565b600054610100900460ff166128e55760405162461bcd60e51b8152600401610a9e906146d0565b6115c0612fc6565b600054610100900460ff166129145760405162461bcd60e51b8152600401610a9e906146d0565b6115c0612ff9565b600054610100900460ff166129435760405162461bcd60e51b8152600401610a9e906146d0565b6110f48282613029565b60fb5460ff16156129705760405162461bcd60e51b8152600401610a9e90614629565b60fb805460ff191660011790557f62e78cea01bee320cd4e420270b5ea74000d11b0c9f74754ebdbfc544b05a2586126e83390565b805460009080156129ed57826129bc60018361466b565b815481106129cc576129cc614412565b600091825260209091200154600160201b90046001600160e01b03166129f0565b60005b6001600160e01b03169392505050565b816001600160a01b0316836001600160a01b03161415612a5e5760405162461bcd60e51b815260206004820152601960248201527822a9219b99189d1030b8383937bb32903a379031b0b63632b960391b6044820152606401610a9e565b6001600160a01b038381166000818152606a6020908152604080832094871680845294825291829020805460ff191686151590811790915591519182527f17307eab39ab6107e8899845ad3d59bd9653f200f220920489ca2b5937696c31910160405180910390a3505050565b612ad6848484612332565b612ae28484848461306c565b611adc5760405162461bcd60e51b8152600401610a9e9061471b565b600061112a8284614653565b600061112a82846145e0565b600061099e612b236124e7565b8360405161190160f01b6020820152602281018390526042810182905260009060620160405160208183030381529060405280519060200120905092915050565b6000806000612b758787878761316e565b91509150612b8281613251565b5095945050505050565b6001600160a01b03811660009081526101c8602052604090208054600181018255905b50919050565b6060612bc0826121dd565b612c265760405162461bcd60e51b815260206004820152603160248201527f45524337323155524953746f726167653a2055524920717565727920666f72206044820152703737b732bc34b9ba32b73a103a37b5b2b760791b6064820152608401610a9e565b600082815260c9602052604081208054612c3f906143dd565b80601f0160208091040260200160405190810160405280929190818152602001828054612c6b906143dd565b8015612cb85780601f10612c8d57610100808354040283529160200191612cb8565b820191906000526020600020905b815481529060010190602001808311612c9b57829003601f168201915b505050505090506000612cc9613407565b9050805160001415612cdc575092915050565b815115612d0e578082604051602001612cf692919061476d565b60405160208183030381529060405292505050919050565b61232a84613417565b60006001600160e01b031982166380ac58cd60e01b1480612d4857506001600160e01b03198216635b5e139f60e01b145b8061099e57506301ffc9a760e01b6001600160e01b031983161461099e565b60fb5460ff1615612d8a5760405162461bcd60e51b8152600401610a9e90614629565b610bcf8383836134e1565b610bcf838383613599565b612daa83836135a5565b612db7600084848461306c565b610bcf5760405162461bcd60e51b8152600401610a9e9061471b565b6000612de26002848418614615565b61112a90848416614653565b612df7816136d9565b600081815260c9602052604090208054612e10906143dd565b15905061132157600081815260c96020526040812061132191613d30565b600061099e82611500565b816001600160a01b0316836001600160a01b031614158015612e5b5750600081115b15610bcf576001600160a01b03831615612eea576001600160a01b03831660009081526101c6602052604081208190612e979061377685613782565b91509150846001600160a01b03167fdec2bacdd2f05b59de34da9b523dff8be42e5e38e818c82fdb0bae774387a7248383604051612edf929190918252602082015260400190565b60405180910390a250505b6001600160a01b03821615610bcf576001600160a01b03821660009081526101c6602052604081208190612f2190612afe85613782565b91509150836001600160a01b03167fdec2bacdd2f05b59de34da9b523dff8be42e5e38e818c82fdb0bae774387a7248383604051612f69929190918252602082015260400190565b60405180910390a25050505050565b600054610100900460ff16612f9f5760405162461bcd60e51b8152600401610a9e906146d0565b8151612fb2906065906020850190613cb0565b508051610bcf906066906020840190613cb0565b600054610100900460ff16612fed5760405162461bcd60e51b8152600401610a9e906146d0565b60fb805460ff19169055565b600054610100900460ff166130205760405162461bcd60e51b8152600401610a9e906146d0565b6115c033612784565b600054610100900460ff166130505760405162461bcd60e51b8152600401610a9e906146d0565b8151602092830120815191909201206101919190915561019255565b6000613080846001600160a01b03166121a9565b1561316657604051630a85bd0160e11b81526001600160a01b0385169063150b7a02906130b790339089908890889060040161479c565b6020604051808303816000875af19250505080156130f2575060408051601f3d908101601f191682019092526130ef918101906147d9565b60015b61314c573d808015613120576040519150601f19603f3d011682016040523d82523d6000602084013e613125565b606091505b5080516131445760405162461bcd60e51b8152600401610a9e9061471b565b805181602001fd5b6001600160e01b031916630a85bd0160e11b14905061232a565b50600161232a565b6000806fa2a8918ca85bafe22016d0b997e4df60600160ff1b0383111561319b5750600090506003613248565b8460ff16601b141580156131b357508460ff16601c14155b156131c45750600090506004613248565b6040805160008082526020820180845289905260ff881692820192909252606081018690526080810185905260019060a0016020604051602081039080840390855afa158015613218573d6000803e3d6000fd5b5050604051601f1901519150506001600160a01b03811661324157600060019250925050613248565b9150600090505b94509492505050565b6000816004811115613265576132656147f6565b141561326e5750565b6001816004811115613282576132826147f6565b14156132cb5760405162461bcd60e51b815260206004820152601860248201527745434453413a20696e76616c6964207369676e617475726560401b6044820152606401610a9e565b60028160048111156132df576132df6147f6565b141561332d5760405162461bcd60e51b815260206004820152601f60248201527f45434453413a20696e76616c6964207369676e6174757265206c656e677468006044820152606401610a9e565b6003816004811115613341576133416147f6565b141561339a5760405162461bcd60e51b815260206004820152602260248201527f45434453413a20696e76616c6964207369676e6174757265202773272076616c604482015261756560f01b6064820152608401610a9e565b60048160048111156133ae576133ae6147f6565b14156113215760405162461bcd60e51b815260206004820152602260248201527f45434453413a20696e76616c6964207369676e6174757265202776272076616c604482015261756560f01b6064820152608401610a9e565b606061022a80546109b3906143dd565b6060613422826121dd565b6134865760405162461bcd60e51b815260206004820152602f60248201527f4552433732314d657461646174613a2055524920717565727920666f72206e6f60448201526e3732bc34b9ba32b73a103a37b5b2b760891b6064820152608401610a9e565b6000613490613407565b905060008151116134b0576040518060200160405280600081525061112a565b806134ba846137b0565b6040516020016134cb92919061476d565b6040516020818303038152906040529392505050565b6001600160a01b03831661353c5761353781609980546000838152609a60205260408120829055600182018355919091527f72a152ddfb8e864297c917af52ea6c1c68aead0fee1a62673fcc7e0c94979d000155565b61355f565b816001600160a01b0316836001600160a01b03161461355f5761355f83826138ad565b6001600160a01b03821661357657610bcf8161394a565b826001600160a01b0316826001600160a01b031614610bcf57610bcf82826139f9565b610bcf83836001613a3d565b6001600160a01b0382166135fb5760405162461bcd60e51b815260206004820181905260248201527f4552433732313a206d696e7420746f20746865207a65726f20616464726573736044820152606401610a9e565b613604816121dd565b156136505760405162461bcd60e51b815260206004820152601c60248201527b115490cdcc8c4e881d1bdad95b88185b1c9958591e481b5a5b9d195960221b6044820152606401610a9e565b61365c60008383612d67565b6001600160a01b0382166000908152606860205260408120805460019290613685908490614653565b909155505060008181526067602052604080822080546001600160a01b0319166001600160a01b0386169081179091559051839290600080516020614872833981519152908290a46110f460008383612d95565b60006136e482611424565b90506136f281600084612d67565b6136fd6000836121fa565b6001600160a01b038116600090815260686020526040812080546001929061372690849061466b565b909155505060008281526067602052604080822080546001600160a01b0319169055518391906001600160a01b03841690600080516020614872833981519152908390a46110f481600084612d95565b600061112a828461466b565b6000806137a48561379f613795886129a5565b868863ffffffff16565b613a98565b91509150935093915050565b6060816137d45750506040805180820190915260018152600360fc1b602082015290565b8160005b81156137fe57806137e881614473565b91506137f79050600a83614615565b91506137d8565b6000816001600160401b0381111561381857613818613efd565b6040519080825280601f01601f191660200182016040528015613842576020820181803683370190505b5090505b841561232a5761385760018361466b565b9150613864600a8661480c565b61386f906030614653565b60f81b81838151811061388457613884614412565b60200101906001600160f81b031916908160001a9053506138a6600a86614615565b9450613846565b600060016138ba84611500565b6138c4919061466b565b600083815260986020526040902054909150808214613917576001600160a01b03841660009081526097602090815260408083208584528252808320548484528184208190558352609890915290208190555b5060009182526098602090815260408084208490556001600160a01b039094168352609781528383209183525290812055565b60995460009061395c9060019061466b565b6000838152609a60205260408120546099805493945090928490811061398457613984614412565b9060005260206000200154905080609983815481106139a5576139a5614412565b6000918252602080832090910192909255828152609a909152604080822084905585825281205560998054806139dd576139dd614820565b6001900381819060005260206000200160009055905550505050565b6000613a0483611500565b6001600160a01b039093166000908152609760209081526040808320868452825280832085905593825260989052919091209190915550565b6001600160a01b038316613a5d57613a5a6101c7612afe83613782565b50505b6001600160a01b038216613a7d57613a7a6101c761377683613782565b50505b610bcf613a89846113fa565b613a92846113fa565b83612e39565b8154600090819081613aa9866129a5565b9050600082118015613ae757504386613ac360018561466b565b81548110613ad357613ad3614412565b60009182526020909120015463ffffffff16145b15613b4757613af585613bbd565b86613b0160018561466b565b81548110613b1157613b11614412565b9060005260206000200160000160046101000a8154816001600160e01b0302191690836001600160e01b03160217905550613bb4565b856000016040518060400160405280613b5f43613c2a565b63ffffffff168152602001613b7388613bbd565b6001600160e01b039081169091528254600181018455600093845260209384902083519490930151909116600160201b0263ffffffff909316929092179101555b95939450505050565b60006001600160e01b03821115613c265760405162461bcd60e51b815260206004820152602760248201527f53616665436173743a2076616c756520646f65736e27742066697420696e20326044820152663234206269747360c81b6064820152608401610a9e565b5090565b600063ffffffff821115613c265760405162461bcd60e51b815260206004820152602660248201527f53616665436173743a2076616c756520646f65736e27742066697420696e203360448201526532206269747360d01b6064820152608401610a9e565b50805460008255600202906000526020600020908101906113219190613d6a565b828054613cbc906143dd565b90600052602060002090601f016020900481019282613cde5760008555613d24565b82601f10613cf757805160ff1916838001178555613d24565b82800160010185558215613d24579182015b82811115613d24578251825591602001919060010190613d09565b50613c26929150613d8e565b508054613d3c906143dd565b6000825580601f10613d4c575050565b601f0160209004906000526020600020908101906113219190613d8e565b80821115613c26576000613d7e8282613d30565b5060006001820155600201613d6a565b5b80821115613c265760008155600101613d8f565b6001600160e01b03198116811461132157600080fd5b600060208284031215613dcb57600080fd5b813561112a81613da3565b60005b83811015613df1578181015183820152602001613dd9565b83811115611adc5750506000910152565b60008151808452613e1a816020860160208601613dd6565b601f01601f19169290920160200192915050565b60208152600061112a6020830184613e02565b600060208284031215613e5357600080fd5b5035919050565b6001600160a01b0391909116815260200190565b6001600160a01b038116811461132157600080fd5b60008060408385031215613e9657600080fd5b8235613ea181613e6e565b946020939093013593505050565b600081518084526020808501945080840160005b83811015613edf57815187529582019590820190600101613ec3565b509495945050505050565b60208152600061112a6020830184613eaf565b634e487b7160e01b600052604160045260246000fd5b604080519081016001600160401b0381118282101715613f3557613f35613efd565b60405290565b604051601f8201601f191681016001600160401b0381118282101715613f6357613f63613efd565b604052919050565b60006001600160401b03831115613f8457613f84613efd565b613f97601f8401601f1916602001613f3b565b9050828152838383011115613fab57600080fd5b828260208301376000602084830101529392505050565b600082601f830112613fd357600080fd5b61112a83833560208501613f6b565b6000806040808486031215613ff657600080fd5b833592506020808501356001600160401b038082111561401557600080fd5b818701915087601f83011261402957600080fd5b81358181111561403b5761403b613efd565b8060051b61404a858201613f3b565b918252838101850191858101908b84111561406457600080fd5b86860192505b838310156140da578235858111156140825760008081fd5b8601808d03601f19018913156140985760008081fd5b6140a0613f13565b88820135878111156140b25760008081fd5b6140c08f8b83860101613fc2565b82525090890135888201528252918601919086019061406a565b80985050505050505050509250929050565b60006020808301818452808551808352604092508286019150828160051b87010184880160005b8381101561415457888303603f190185528151805187855261413788860182613e02565b918901519489019490945294870194925090860190600101614113565b509098975050505050505050565b60008060006060848603121561417757600080fd5b833561418281613e6e565b9250602084013561419281613e6e565b929592945050506040919091013590565b600080604083850312156141b657600080fd5b50508035926020909101359150565b6000602082840312156141d757600080fd5b813561112a81613e6e565b6000602082840312156141f457600080fd5b81356001600160401b0381111561420a57600080fd5b61232a84828501613fc2565b6000806040838503121561422957600080fd5b823561423481613e6e565b91506020830135801515811461424957600080fd5b809150509250929050565b6000806000806080858703121561426a57600080fd5b843561427581613e6e565b9350602085013561428581613e6e565b92506040850135915060608501356001600160401b038111156142a757600080fd5b8501601f810187136142b857600080fd5b6142c787823560208401613f6b565b91505092959194509250565b600081518084526020808501945080840160005b83811015613edf5781516001600160a01b0316875295820195908201906001016142e7565b60208152600061112a60208301846142d3565b60408152600061433260408301856142d3565b82810360208401526143448185613eaf565b95945050505050565b60008060008060008060c0878903121561436657600080fd5b863561437181613e6e565b95506020870135945060408701359350606087013560ff8116811461439557600080fd5b9598949750929560808101359460a0909101359350915050565b600080604083850312156143c257600080fd5b82356143cd81613e6e565b9150602083013561424981613e6e565b600181811c908216806143f157607f821691505b60208210811415612baf57634e487b7160e01b600052602260045260246000fd5b634e487b7160e01b600052603260045260246000fd5b6020808252818101527f4f776e61626c653a2063616c6c6572206973206e6f7420746865206f776e6572604082015260600190565b634e487b7160e01b600052601160045260246000fd5b60006000198214156144875761448761445d565b5060010190565b6000602080830181845280855480835260408601915060408160051b87010192506000878152848120815b8381101561458157888603603f190185526040865281548390600181811c90808316806144e757607f831692505b8b831081141561450557634e487b7160e01b88526022600452602488fd5b60408b0183905260608b0181801561452457600181146145355761455f565b60ff19861682528d8201965061455f565b6000898152602090208a5b8681101561455957815484820152908501908f01614540565b83019750505b505050850154988a0198909852509550938601936002909101906001016144b9565b509398975050505050505050565b60208082526031908201527f4552433732313a207472616e736665722063616c6c6572206973206e6f74206f6040820152701ddb995c881b9bdc88185c1c1c9bdd9959607a1b606082015260800190565b60008160001904831182151516156145fa576145fa61445d565b500290565b634e487b7160e01b600052601260045260246000fd5b600082614624576146246145ff565b500490565b60208082526010908201526f14185d5cd8589b194e881c185d5cd95960821b604082015260600190565b600082198211156146665761466661445d565b500190565b60008282101561467d5761467d61445d565b500390565b6020808252602e908201527f496e697469616c697a61626c653a20636f6e747261637420697320616c72656160408201526d191e481a5b9a5d1a585b1a5e995960921b606082015260800190565b6020808252602b908201527f496e697469616c697a61626c653a20636f6e7472616374206973206e6f74206960408201526a6e697469616c697a696e6760a81b606082015260800190565b60208082526032908201527f4552433732313a207472616e7366657220746f206e6f6e20455243373231526560408201527131b2b4bb32b91034b6b83632b6b2b73a32b960711b606082015260800190565b6000835161477f818460208801613dd6565b835190830190614793818360208801613dd6565b01949350505050565b6001600160a01b03858116825284166020820152604081018390526080606082018190526000906147cf90830184613e02565b9695505050505050565b6000602082840312156147eb57600080fd5b815161112a81613da3565b634e487b7160e01b600052602160045260246000fd5b60008261481b5761481b6145ff565b500690565b634e487b7160e01b600052603160045260246000fdfe68747470733a2f2f63727970746978656c2e6172742f6170692f76312f636f6c6c656374696f6e2f6379636c6f70732f636f6e74726163742e6a73ddf252ad1be2c89b69c2b068fc378daa952ba7f163c4a11628f55a4df523b3ef68747470733a2f2f63727970746978656c2e6172742f6170692f76312f636f6c6c656374696f6e2f6379636c6f70732fa2646970667358221220609435003298f65414bc2e1a3c9b401684aeb562023155c947167b01e6b9ff5b64736f6c634300080a0033",
  "linkReferences": {},
  "deployedLinkReferences": {}
}